:020000040800F2
:10000000000003203107000881070008810700086D
:100010008107000881070008810700080000000030
:100020000000000000000000000000008107000840
:100030008107000800000000810700080107000890
:100040008107000881070008810700088107000870
:100050008107000881070008810700088107000860
:100060008107000881070008810700088107000850
:100070008107000881070008810700088107000840
:100080008107000881070008810700088107000830
:100090008107000881070008810700088107000820
:1000A0008107000881070008810700088107000810
:1000B0008107000881070008810700088107000800
:1000C00081070008810700088107000881070008F0
:1000D00081070008810700088107000881070008E0
:1000E00069060008810700088107000881070008E9
:1000F00081070008810700088107000881070008C0
:1001000081070008810700088107000881070008AF
:10011000810700088107000881070008810700089F
:10012000810700088107000881070008810700088F
:10013000810700088107000881070008810700087F
:10014000810700088107000881070008810700086F
:10015000810700088107000881070008810700085F
:10016000810700088107000881070008810700084F
:1001700081070008810700088107000800000000CF
:10018000810700088107000881070008810700082F
:10019000810700088107000881070008810700081F
:0C01A000810700088107000881070008A3
:1001AC0010B5054C237833B9044B13B10448AFF3A5
:1001BC0000800123237010BD04000020000000000B
:1001CC00CC07000808B5034B1BB103490348AFF338
:1001DC00008008BD0000000008000020CC070008CB
:1001EC00034AD2F8883043F47003C2F88830704761
:1001FC0000ED00E070B50646074DAB690343AB61FB
:10020C004C08204600F084FAAB6943EA0643AB6124
:10021C00204600F07DFA70BD00040240F8B5074698
:10022C000E460B4CA3690343A361A3690B43A36163
:10023C005508284600F06CFAA36943EA0743A3610A
:10024C00A36943EA0643A361284600F061FAF8BDAE
:10025C000004024000B58BB0304C0DF1100CA646DA
:10026C00BEE80F00ACE80F009EE803008CE803002A
:10027C0004F1180393E803000290ADF80C1020343D
:10028C0094E803000090ADF8041000F06FF800F053
:10029C0009F900F031F900F08DF900F0BFF906E032
:1002AC001F4B00221A701E4B1B78052B09D91D4BB6
:1002BC001B78012BF4D0022BF9D1194B00221A70A8
:1002CC0027E0194A12780AA901EB420201EB8303D9
:1002DC0012F8201C53F8180CFFF78CFF104A1378F7
:1002EC0001331370DFE7D91C0F4A12780AA800EB10
:1002FC00420200EB810100EB830312F8282C51F829
:10030C00181C53F8180CFFF789FF054A13780133B2
:10031C001370034B1B78022BE5D9C8E7E4070008E0
:10032C0020000020000000202100002000B500F07B
:10033C000700C0F1070CBCF1040F28BF4FF0040CF0
:10034C00031D062B0FD9C31E4FF0FF3E0EFA0CF007
:10035C0021EA000199400EFA03FE22EA0E0241EA5C
:10036C0002005DF804FB0023EEE700004B4B1A6B18
:10037C0042F006021A631B6B494B1A6822F0030207
:10038C0042F001021A605A6822F001025A609A681F
:10039C0022F0030242F001029A609A6922F4803240
:1003AC009A61DA6822F00302DA601A6822F4404299
:1003BC0042F480421A605A6822F080025A609A68AD
:1003CC0022F4404242F480429A609A6922F400027C
:1003DC009A61DA6822F44042DA601A6822F04052DC
:1003EC0042F080521A605A6822F480425A609A682D
:1003FC0022F0405242F080529A609A6922F0804278
:10040C009A61DA6822F04052DA601A6822F44032BB
:10041C0042F480321A605A6822F480725A609A68E8
:10042C0022F4403242F480329A609A6922F080724F
:10043C009A61DA6822F44032DA601A6822F44002D7
:10044C0042F480021A605A6822F400625A609A6878
:10045C0022F4400242F480029A609A6922F000620F
:10046C009A61DA6822F44002DA601A6822F44012C7
:10047C0042F480121A605A6822F480625A609A68B8
:10048C0022F4401242F480129A609A6922F080623F
:10049C009A61DA6822F44012DA6070470038024040
:1004AC0000040240134A136823F0F80343F080035E
:1004BC001360002393600F4B9B6813F00C0FFAD161
:1004CC000C4A136823F0807313600A4B1B6813F0FB
:1004DC00007FFAD1074A136823F410231360054BED
:1004EC001B6813F4003FFAD1024A136823F48023EB
:1004FC0013607047003802402C4A136843F4803371
:10050C0013602A4B1B6813F4003FFAD0274B1A6870
:10051C0022F480221A601A6842F400221A60002227
:10052C005A605A6842F480025A605A6822F03F02BC
:10053C0042F004025A605A686FF38E1242F434523D
:10054C005A605A6822F440325A601A6842F080723B
:10055C001A60164B1B6813F0007FFAD1134B9A6884
:10056C0022F0030242F002029A609A6822F0F00232
:10057C009A609A6822F4E05242F4A0529A609A6807
:10058C0022F4604242F400429A609A6842F060524F
:10059C009A609A6822F040429A60054A136823F0E8
:1005AC000F0343F005031360704700BF003802408F
:1005BC00003C024008B5154A536C43F48043536425
:1005CC00A2F58032536923F0F00343F0200353610A
:1005DC000F4B1A6842F400521A609A6842F40052A7
:1005EC009A60DA6842F40052DA600A4BD86800224A
:1005FC001146C0F30220FFF799FE0001C0B2064B72
:10060C0083F828034FF480725A6008BD003802400A
:10061C00003C014000ED00E000E100E04FF0E02381
:10062C001A6922F001021A611A6942F002021A6177
:10063C001A6942F004021A61596901F07F41064AB5
:10064C000A435A619A6902F07F429A611A6942F030
:10065C0001021A61704700BF1FBF0200204B1B68CC
:10066C00F92B03D91F4A1378013313701D4B1B78D8
:10067C00022B10D0022B05D91A4B01221A70184BE1
:10068C0000221A60164B00221A60174A536943F471
:10069C00005353617047124A1268B2F5FA6F06D3D1
:1006AC00124A1278012A13D9104A002111700C4AEF
:1006BC001268B2F5FA6FDDD2094A1268002AD9D055
:1006CC000B4A1278012A07D9094A01211170D1E786
:1006DC00013206490A70EAE7013205490A70C9E796
:1006EC00280000202C000020003C014021000020AC
:1006FC0000000020044A136801331360034A136896
:10070C0001331360704700BF280000202400002034
:10071C00034B1A68024B1B689B1A8342FAD370472F
:10072C0024000020DFF834D00D480E490E4A002377
:10073C0002E0D458C4500433C4188C42F9D30B4A89
:10074C000B4C002301E013600432A242FBD3FFF7F1
:10075C0047FD00F011F8FFF77DFD70470000032006
:10076C0000000020040000201408000804000020F1
:10077C0030000020FEE7000070B50D4D0D4C641BE1
:10078C00A4100026A64209D10B4D0C4C00F018F811
:10079C00641BA4100026A64205D170BD55F8043B7D
:1007AC0098470136EEE755F8043B98470136F2E7D7
:1007BC000C0800080C0800080C08000810080008B9
:1007CC00F8B500BFF8BC08BC9E467047F8B500BF32
:0807DC00F8BC08BC9E46704702
:1007E4000100000080000000004000000001000043
:1007F4000004000000080000C40971028101000027
:08080400E40C7102B3010000D5
:04080C00D10100080E
:04081000AD0100082E
:0408140001000000DF
:0400000508000731B7
:00000001FF
