:020000040800F2
:10000000000003204504000895040008950400083A
:1000100095040008950400089504000800000000FD
:10002000000000000000000000000000950400082F
:1000300095040008000000009504000895040008DD
:10004000950400089504000895040008950400082C
:10005000950400089504000895040008950400081C
:10006000950400089504000895040008950400080C
:1000700095040008950400089504000895040008FC
:1000800095040008950400089504000895040008EC
:1000900095040008950400089504000895040008DC
:1000A00095040008950400089504000895040008CC
:1000B00095040008950400089504000895040008BC
:1000C00095040008950400089504000895040008AC
:1000D000950400089504000895040008950400089C
:1000E000150400089504000895040008950400080C
:1000F000950400089504000895040008950400087C
:10010000950400089504000895040008950400086B
:10011000950400089504000895040008950400085B
:10012000950400089504000895040008950400084B
:10013000950400089504000895040008950400083B
:10014000950400089504000895040008950400082B
:10015000950400089504000895040008950400081B
:10016000950400089504000895040008950400080B
:10017000950400089504000895040008000000009C
:1001800095040008950400089504000895040008EB
:1001900095040008950400089504000895040008DB
:0C01A00095040008950400089504000870
:1001AC0010B5054C237833B9044B13B10448AFF3A5
:1001BC0000800123237010BD00000020000000000F
:1001CC00E004000808B5034B1BB103490348AFF327
:1001DC00008008BD0000000004000020E0040008BE
:1001EC00034AD2F8883043F47003C2F88830704761
:1001FC0000ED00E008B500F08BF800F055F8184A57
:10020C00136B43F007031363164B1A6842F48042D6
:10021C001A609A6842F480429A609A6942F4000229
:10022C009A6103F580631A6842F400221A609A6896
:10023C0042F440229A605A6A22F0F0025A62A3F504
:10024C0000631A6842F400321A609A6842F4403231
:10025C009A605A6A22F00F025A62002008BD00BF51
:10026C00003802400004024000B500F00700C0F165
:10027C00070CBCF1040F28BF4FF0040C031D062B18
:10028C000FD9C31E4FF0FF3E0EFA0CF021EA00010D
:10029C0099400EFA03FE22EA0E0241EA02005DF8D2
:1002AC0004FB0023EEE7000008B5154A536C43F439
:1002BC0080435364A2F58032536923F0F00343F07A
:1002CC00200353610F4B1A6842F400521A609A686B
:1002DC0042F400529A60DA6842F40052DA600A4B37
:1002EC00D86800221146C0F30220FFF7BDFF0001C1
:1002FC00C0B2064B83F828034FF480725A6008BDD5
:10030C0000380240003C014000ED00E000E100E05C
:10031C003B4A136823F0F80343F080031360002377
:10032C009360374B9B6813F00C0FFAD1344A136867
:10033C0023F080731360324B1B6813F0007FFAD1EB
:10034C002F4A136823F4102313602D4B1B6813F4EE
:10035C00003FFAD12A4B1A6822F480221A601A68DC
:10036C0042F480321A60264B1B6813F4003FFAD01B
:10037C00234B1A6842F400221A6000225A605A6811
:10038C0042F480025A605A6842F004025A605A6879
:10039C0042F490525A605A6842F480325A605A6859
:1003AC0042F070625A609A6842F002029A609A684F
:1003BC009A609A6842F4A0529A609A6842F4004299
:1003CC009A609A6842F4C0029A609A6842F0C062DD
:1003DC009A609A6822F040429A609A6842F04052C1
:1003EC009A6008490A6842F005020A601A6842F0ED
:1003FC0080721A60024B1B6813F0007FFAD07047B2
:10040C0000380240003C0240084A536943F4005350
:10041C005361074A13780133DBB21370054A137822
:10042C00B3FA83F35B091370704700BF003C0140C3
:10043C001D0000201C000020DFF834D00D480E49B0
:10044C000E4A002302E0D458C4500433C4188C4222
:10045C00F9D30B4A0B4C002301E013600432A24287
:10046C00FBD3FFF7BDFE00F011F8FFF7C3FE70479A
:10047C000000032000000020000000200005000800
:10048C000000002020000020FEE7000070B50D4D9C
:10049C000D4C641BA4100026A64209D10B4D0C4C2C
:1004AC0000F018F8641BA4100026A64205D170BDFC
:1004BC0055F8043B98470136EEE755F8043B98474E
:1004CC000136F2E7F8040008F8040008F804000804
:1004DC00FC040008F8B500BFF8BC08BC9E46704789
:0C04EC00F8B500BFF8BC08BC9E46704785
:0404F800D101000826
:0404FC00AD01000846
:0400000508000445A6
:00000001FF
